S01A0000424C454F627365727665725F53616D706C652E737265632E
S113000028420020790C0000750C0000750C0000DB
S113001000000000000000000000000000000000DC
S1130020000000000000000000000000750C00004B
S11300300000000000000000750C0000750C0000BA
S1130040750C0000750C0000750C000049030000DD
S1130050750C0000750C0000750C0000750C000098
S1130060C9020000750C0000750C0000E9020000D4
S113007009030000750C0000750C0000750C0000ED
S1130080750C000029030000750C0000750C0000BD
S1130090750C0000750C0000750C0000750C000058
S11300A0750C0000750C0000750C0000750C000048
S11300B00000000010B5064C2378002B07D1054B37
S11300C0002B02D0044800E000BF0123237010BDC0
S11300D09800002000000000C0C7000008B5084BCD
S11300E0002B03D00748084900E000BF0748036815
S11300F0002B00D108BD064B002BFBD09847F9E735
S113010000000000C0C700009C000020C0C7000021
S113011000000000054B4022C8215A5004395A50AF
S1130120034AD16901230B43D3617047001800408F
S11301300004004010B504200649074CA0470520E0
S11301400649A04706200649A04707200549A047BD
S113015010BDC04603000400E91D000003000500B3
S1130160030006000300070010B5064B9847064835
S11301708421C905054A1023054CA047054B98471F
S113018010BDC04615010000F80D0020B400002089
S11301905D1300003501000010B516200349044C1E
S11301A0A04717200349A04710BDC046020016000F
S11301B0E91D000002001700054B4022D4215A50CB
S11301C010395A50034AD16908230B43D36170474D
S11301D0001800400004004008B5044B9847044848
S11301E00449054B9847054B984708BDB9010000E1
S11301F0480E0020000C0042551600009901000032
S1130200054B4022D8215A5014395A50034AD16917
S113021010230B43D36170470018004000040040D2
S113022010B528200349044CA04729200349A047BE
S113023010BDC04603002800E91D0000030029008A
S113024010B5064B984706480649074A1032102352
S1130250064CA047064B984710BDC046010200005B
S1130260540E002000100042B40000205D13000072
S11302702102000008B540218C230D4AD1500D4ABB
S11302805369C131FF310B4353610B4B9847002035
S113029004210122094B9847002002210122084B26
S11302A09847022080218902064B984708BDC04622
S11302B00018004000040040B50D0000911C00002F
S11302C0691D0000E91D000008B5054B1B6A002BE1
S11302D003D058681B68984701E0024B984708BD53
S11302E0C40E00204919000008B5054BDB6A002B39
S11302F003D058681B68984701E0024B984708BD33
S1130300C40E00204919000008B5054B1B6B002BD7
S113031003D058681B68984701E0024B984708BD12
S1130320C40E00204919000008B5054B5B6C002B76
S113033003D058681B68984701E0024B984708BDF2
S1130340C40E00204919000008B5054BDB68002BDA
S113035003D058681B68984701E0024B984708BDD2
S1130360C40E002049190000F8B52D4B9847002011
S1130370012102222B4FB8470020012100222A4EDE
S1130380B04701256D420020291C284CA0470020BD
S113039002210222B847002002210022B047012096
S11303A0291CA047002008210222B8470020082168
S11303B00022B0470320291CA047012080210222EB
S11303C0B847012080210022B0472720291CA047DC
S11303D001208021C9000222B84701208021C900E0
S11303E00022B0472A20291CA047114B9847114BE3
S11303F09847114B9847114AD369802149000B4310
S1130400D361C039EC230E4AD1500E4B9847021CDD
S11304100D480E490E4B98470E4B9847F8BDC04601
S113042075190000911C0000351D0000E91D000035
S113043069010000D90100004102000000040040ED
S11304400018004065230000A40E00200020004294
S1130450B50F00007502000008B5012080210022BC
S1130460014B984708BDC046351D000008B5012062
S113047080210122014B984708BDC046351D00006C
S113048008B5002008210022014B984708BDC0464A
S1130490351D000008B5002008210122014B9847B2
S11304A008BDC046351D000070B500200E4B9847AE
S11304B00120802102220D4EB04701256D422720E4
S11304C0291C0B4CA0470B4B984700200821022203
S11304D0B0470320291CA047074B98473220074BFD
S11304E09847074B984770BD3D0D0000911C0000D4
S11304F0E91D00006D04000081040000510D00009E
S1130500950400000122014B1A707047FC00002082
S11305107047C04610B584B011481B210022002347
S1130520104CA047011E03D00F48104B9847FEE71C
S11305300F48104B9847C823DB0000930023019316
S113054002930320032100220B4CA047011E02D07A
S11305500A48064B98470A48064B9847FEE7C046A8
S113056000000020CD44000068860000D97400001B
S11305709C860000F975000051450000C08600000B
S1130580E8860000F0B55F4656464D464446F0B452
S113059089B08246C048C14B9847C148C149C24C42
S11305A0A047C24B9847C248A04753461B78052B27
S11305B019D853461B789B00BE4AD3589F46BE4861
S11305C0B94B984712E0BD48B74B98470EE0BC487A
S11305D0B54B98470AE0BB48B34B984706E0BA4886
S11305E0B14B984702E0B948AF4B984753461B7844
S11305F0052B03D0B64A137801331370A648A74BD2
S11306009847A748B349A84CA047B348A0475346C6
S11306105B78012B0AD0002B04D0022B0AD0032BC9
S11306200CD00FE0AD48A04B98470EE0AC489E4B71
S113063098470AE0AB489C4B984706E0AA489A4B77
S1130640984702E0A948984B98479348934B98479A
S11306509348A749944CA047A648A0475346DC1D9D
S11306605F1CA54D904E2178281CB047013CBC422C
S1130670F9D18948894B98478948A0498A4CA047B1
S113068028235246D1569E48A04727235246D35C7E
S11306909B46002B00D137E2002302AA1370984630
S11306A0534643441A7A02A90A705B7A4B70434654
S11306B00A33534403934B78DBB2072B00D1BEE0DB
S11306C00BD8032B04D8022B49D2012B1AD007E2F2
S11306D0052B72D000D892E02EE10A2B00D1D2E192
S11306E006D8082B00D153E1092B00D16FE1F7E1C3
S11306F01A2B00D1DDE1FF2B00D187E1192B00D0AB
S1130700EEE1A8E16448654B984765487D49664C2D
S1130710A0477148A047039B1B780122134202D0D3
S11307207948614B9847039B1B789B0702D5774810
S11307305D4B9847039B1B785B0702D574485A4B63
S11307409847039B7348584B9847039B1B78102288
S1130750134200D1C4E17048534B9847C0E102AB47
S11307601D78013DEDB25B78032B07D14A484B4B12
S113077098474B4869494C4B984706E04648474BD5
S1130780984747486649484B98475348464B9847CB
S1130790002D00D1A4E1634C434F039904AE301CF7
S11307A00222A047039B02330393023DEDB231883A
S11307B05D48B847002DF0D192E102AB1D78013DB0
S11307C0EDB23548354B984735485849364CA04723
S11307D04148A047002D00D182E1524C324F039989
S11307E004AE301C0422A047039B04330393043D4E
S11307F0EDB231884E48B847002DF0D170E102AB1C
S11308001D78013DEDB22448244B984724484449BF
S1130810254B9847002D00D162E1424C224F0399A9
S113082004AE301C0422A047039B04330393043D0D
S1130830EDB231883E48B847002DF0D150E102AB0B
S11308401B78013BDBB299461348144B9847144874
S11308503849154CA0472048A0474B46002B00D1EF
S11308603EE1334F104E039904A802222D4B9847C2
S1130870039B103303934B46103BDBB2994604AC05
S113088008AD2178381CB0470134AC42F9D14B464D
S1130890002BE8D124E1C04608870000F975000068
S11308A00C87000014870000D9740000F1240000B4
S11308B02C870000FC850000348700003C87000082
S11308C04C87000068870000808700009487000040
S11308D0C00E0020A087000030870000B48700000D
S11308E0C4870000DC87000000880000288800001E
S11308F03488000044880000049300004C88000001
S1130900548800005C88000064880000848800002B
S1130910A4880000BC880000DC880000F488000083
S113092014890000B7740000308900003889000081
S1130930588900006089000002AB1B78013BDBB2E0
S113094099467448744B984774487549754CA04748
S11309507548A0474B46002B00D1C1E0734C714F42
S1130960039904A80222724B9847039B1033039304
S11309704B46103BDBB2994604AD08AE2978201CE7
S1130980B8470135B542F9D14B46002BE8D1A7E071
S113099002AB1F78013FFFB25E485F4B98475F4848
S11309A06449604CA0476048A0477BB2002B09DD36
S11309B00024614E1D1C039B185DB047013463B2D3
S11309C0AB42F8DB039B7FB2DF19039788E002ABED
S11309D01F78013FFFB24F484F4B98474F48574944
S11309E0504CA0475048A0477BB2002B09DD00249F
S11309F0514E1D1C039B185DB047013463B2AB42DA
S1130A00F8DB039B7FB2DF19039769E002AB1B7825
S1130A10013BDBB21D1C01933E483F4B98473F48C6
S1130A204749404CA0474048A0476BB2002B0BDD20
S1130A300025444C3B4F1E1C039B595D201CB847AA
S1130A4001356BB2B342F7DB039A6B461B795BB299
S1130A50D318039344E002AB1B782E482E4B9847DF
S1130A602E4839492F4CA0472F48A047039904AD7D
S1130A70281C02222E4B984729883448A047039B00
S1130A80023303932CE002AB1B782248224B984795
S1130A9022482F49234CA0472348A047039A04AB7C
S1130AA012781A7019882948A047039B01330393CD
S1130AB016E002AB1B781748174B9847174825498F
S1130AC0184CA0471848A047039904AD281C0222DB
S1130AD0174B984729881D48A047039B023303936B
S1130AE002AB1B7801334344DBB2984602AB1B785C
S1130AF00133DBB202AA137013785A46D31ADBB25D
S1130B009B46002B00D0CBE50122134B1A70134BEC
S1130B109847C04608870000F97500000C8700005C
S1130B2080890000D97400003087000058890000D3
S1130B30B7740000A08900000D750000B48900009E
S1130B40C889000030890000E4890000F0890000B1
S1130B50F8890000088A000030070020150500000D
S1130B6008B50748074B9847074B19780748084BBF
S1130B709847084B98470122074B1A70074B984730
S1130B8008870000F9750000C00E0020208A0000CC
S1130B90D97400008D4600003007002015050000C0
S1130BA010B584B01E4B98471E4B98471E4B984770
S1130BB01E481F4B984701201E4901221E4B1F4C03
S1130BC0A04700201E4B984700221E4B1A7000209D
S1130BD000211D4A1D4B98471D481B21002200235C
S1130BE01C4CA047011E03D01B481C4B9847FEE732
S1130BF01B481C4B9847C823DB0000930023019338
S1130C000293032003210022174CA047011E03D0A6
S1130C101648124B9847FEE71548124B9847FEE7D3
S1130C2085240000B1240000912400000505000083
S1130C3005250000C05D0000110500001525000019
S1130C40E12F00003007002014860000112F00005F
S1130C5000000020CD44000068860000D974000024
S1130C609C860000F975000051450000C086000014
S1130C70E8860000FEE7C04610B51D4B1D4A9A42A7
S1130C8003D01D4B1A4A9A4204D31C4B1C4A9A4265
S1130C9010D31EE01B4A184B03339B1A9B080133E5
S1130CA09B000022124813498C58845004329A4203
S1130CB0FAD1EAE7144A114B03339B1A9B08013318
S1130CC09B0000220E4800211418216004329A422D
S1130CD0FAD10E4AFF210E4B8B4393600D4A5168A3
S1130CE080230B4353600C4B98470C4B9847FEE70B
S1130CF000000020C0C7000098000020242200202B
S1130D0098000020040000209C00002000ED00E07A
S1130D1000000000004000414D740000A10B0000E1
S1130D20EFF31083036072B6BFF35F8F7047C04662
S1130D30BFF35F8F036883F31088704708B5024BD5
S1130D401860024B984708BD000100206919000093
S1130D5010B5044B1C68044B9847011C201C034B22
S1130D60984710BD000100204D1900006D190000C6
S1130D70F8B501240025FF270D4E63195B10D9B285
S1130D803B40DA00B2185268824206D1DB00084ABE
S1130D909B58002B06D0984708E0824202D20131CA
S1130DA0CDB201E00139CCB2AC42E6D2F8BDC046C6
S1130DB00401002008B5054B012252425A6000226A
S1130DC01A600348034B984708BDC046040100203D
S1130DD0710D0000A51A0000F8B51C4B5B68834236
S1130DE025D11A4A1160002917D1181C184B9847AD
S1130DF02AE0164B1960586001230CE0013309D036
S1130E00124B1C6859681A1C08321D1CC0CAC0C584
S1130E109C60D9600023002B03D001210C4B984720
S1130E2012E00D2040420FE00D2040420CE000296A
S1130E30FAD0064B1B68002BDBD0044A5368D268F7
S1130E409A42DBD30D204042F8BDC0460401002085
S1130E50651B000070B5041C0D1C161C002803D073
S1130E60081C431E984100E0002005493F22054B21
S1130E7098472368201C291C321C984770BDC04623
S1130E80508A0000C916000070B5041C0D1C161C05
S1130E90002803D0081C431E984100E000200549A7
S1130EA04922054B98476368201C291C321C98472B
S1130EB070BDC046508A0000C9160000F0B5474610
S1130EC080B480460768002F02D1154B984724E070
S1130ED08E683C1C002500E01C1C6368934204D807
S1130EE0A068844663449B1A04E0A0688446634473
S1130EF001339B1AB34206D2002C0BD02368251C65
S1130F00002BE9D106E0BC4203D14046044B98478C
S1130F1003E02C1C201C034B984704BC9046F0BDF6
S1130F20F916000025170000F0B5474680B482B0DA
S1130F3045690369013398460361037EDB070BD4DB
S1130F40037E9B0708D4002D2CD043466A689B1A65
S1130F50AA68934207D225E0027E02231343037654
S1130F6020E0251C06E0071C14239C4684446346A9
S1130F7001930E4E0198B0472B7C012B06D14346BA
S1130F806B600198291C4246094B98477C69EB68C1
S1130F90281C9847002C05D0434662689B1AA26817
S1130FA09342DED202B004BC9046F0BD2D1700007F
S1130FB0BD0E000038B5041C0D1C002803D0081C0D
S1130FC0431E984100E0002006494922064B9847F9
S1130FD0201C291C054B984700232361044B2360E4
S1130FE0002038BD648A0000C9160000D121000029
S1130FF0290F000010B5041C431E9841C0B20849D3
S11310006122084B9847201C074B9847002804D1BD
S1131010201C064B9847002001E01120404210BDDF
S1131020648A0000C9160000512300003D2300001B
S113103070B582B0041C0D1C002803D0081C431E8C
S1131040984100E000201D498E221D4B9847227EC6
S1131050012313432376261C1436301C291C194BF8
S1131060984700280BD0237E012293432376002047
S113107012499332124B9847122040421CE02369D4
S11310806B60301C291C22690F4B9847237E012278
S113109093432376237E00209B070DD501A80B4B99
S11310A09847237E022293432376201C084B9847BB
S11310B001A8084B9847002002B070BD648A000064
S11310C0C9160000D1160000BD0E0000210D00005D
S11310D069230000310D000070B582B0041C0D1CA2
S11310E0002803D0081C431E984100E000201B493F
S11310F0AD221B4B9847227E012313432376261CE3
S11311001436301C291C174B984700280AD1237E1B
S11311100122934323761149B232114B98470A2096
S1131120404219E0301C291C0F4B9847237E0122B2
S113113093432376237E00209B070DD501A80B4BF8
S11311409847237E022293432376201C084B98471A
S113115001A8084B9847002002B070BD648A0000C3
S1131160C9160000D11600003D170000210D000033
S113117069230000310D000008B50838002303631B
S1131180436A002B00D0984708BDC04608B508380C
S113119000230363C36A002B00D0984708BDC046F0
S11311A010B5041C083C2C30054B98474E22A35A1A
S11311B00133A352A36A002B01D0201C984710BD11
S11311C01D18000070B5041C0E1C151C002805D049
S11311D0002905D0101C431E984102E0002000E0C5
S11311E000200E495C22FF320D4B98474423E25AFB
S11311F00833E35A9A420DD1A6644C23E5520022E7
S1131200083BE252433B2363201C0830054B9847BC
S1131210281C01E01C20404270BDC0467C8A0000AE
S1131220C91600004921000038B5041C011C083906
S1131230838F4C228A5A9A420CD00A1C896C5D1CFA
S113124044201552C95C201C044B9847201C044BB5
S1131250984701E0034B984738BDC0461121000070
S11312604921000051210000F0B54F464646C0B464
S113127085B080460E1C171C002804D0002902D01B
S1131280002A2AD140E000202E49BD2252002E4BD4
S1131290984703A82D4B9847342343440193181CC3
S11312A02B4B9847051C03A82A4B9847002D10D0B8
S11312B0002F10D000210024274B99460134A4B2FA
S11312C071180198C847211EA9422ED2A742F5D809
S11312D02BE0002429E0002427E001201949BD2245
S11312E05200194B984703A8184B9847342343449A
S11312F00193181C164B9847051C03A8154B9847D7
S11313000024002D11D0D5E700200E49BD22520043
S11313100D4B984703A80D4B9847404634300C4B6F
S1131320984703A80B4B984700244E2243469B5AE8
S11313301B1B41468B52201C05B00CBC90469946A1
S1131340F0BDC0467C8A0000C9160000210D0000D3
S11313505D180000310D0000D5170000F8B5041C1D
S11313600D1C161C1F1C002807D0002907D0002ABA
S113137007D0181C431E984104E0002002E000201E
S113138000E0002012494722124B9847201C3430B9
S1131390311C3A1C104B9847002816D1201C0830E9
S11313A0291C0E4B9847031E11D100214E22A15235
S11313B00B4A62600B4A22600B4AA2600B4AE2604D
S11313C00B4A22610B4A626101E00D204042F8BDE4
S11313D07C8A0000C91600007D170000212000004F
S11313E069120000C511000029120000A1110000BB
S11313F0791100008D11000010B5041C431E9841A2
S1131400C0B206496322064B9847201C0830054B9E
S11314109847002363602360002010BD7C8A00008D
S1131420C91600009120000010B5041C431E984109
S1131430C0B205497122054B9847201C0830044B63
S11314409847002010BDC0467C8A0000C9160000E1
S1131450E120000010B5041C431E9841C0B20549A8
S11314607D22054B9847201C0830044B98470020E8
S113147010BDC0467C8A0000C9160000F52000009B
S113148038B5041C0D1C002803D0081C431E9841C9
S113149000E0002003498A22034B98472C60002077
S11314A038BDC0467C8A0000C916000070B5051C12
S11314B00E1C141C431E9841C0B217499622174BA8
S11314C09847012E0FD0002E02D0022E16D020E015
S11314D0AC62281C0830621E9441E2B20121104B18
S11314E09847002017E06C62281C0830621E944163
S11314F0E2B202210A4B984700200CE0EC62281C5F
S11315000830621E9441E2B20321054B9847002043
S113151001E00D20404270BD7C8A0000C916000025
S11315205921000038B5041C0D1C431E9841C0B25B
S11315300549B222054B9847201C0830291C044B4E
S11315409847002038BDC0467C8A0000C9160000B8
S11315504521000010B5041C431E9841C0B2054942
S113156089225200044B9847201C0830034B9847AB
S113157010BDC0467C8A0000C91600002D21000061
S1131580F8B54F464646C0B4051C0F1C90460028CB
S113159005D0002905D0101C431E984102E000200C
S11315A000E000200F49892252000F4B984708356C
S11315B00E4E2C1C281CB0470028FAD000260C4BD9
S11315C099460A4DB95D201CC847201CA84700282D
S11315D0FBD001364645F5D3301C0CBC90469946E9
S11315E0F8BDC0469C8A0000C916000021210000F5
S11315F009210000F0B5474680B4041C0F1C904636
S1131600002805D0002905D0101C431E984102E093
S1131610002000E000200B492E22FF320A4B98479D
S113162000260A4D0834201CA8470028FBD0201CA3
S1131630074B9847B85501364645F4D3301C04BCD3
S11316409046F0BD9C8A0000C916000039210000B4
S11316501921000038B5041C0D1C002803D0081CF7
S1131660431E984100E0002007494222074B984757
S1131670201C0830291C064B9847002803D1054B31
S11316806360054B236038BD9C8A0000C9160000C6
S1131690F51F0000F51500008115000010B5041CAD
S11316A0431E9841C0B205496322054B9847201C4C
S11316B00830044B9847002010BDC0469C8A0000A7
S11316C0C9160000CD200000002800D100BE7047DC
S11316D00368002B09D08B4202D108E0994208D05C
S11316E01B68002BFAD1002004E0002002E0012056
S11316F000E001207047C04638B5041C0D1C064BA1
S1131700984701235840C0B204494522044B9847E6
S113171023682B60256038BDD1160000B88A00000C
S1131720C916000003680B60016070470368002B52
S113173001D01A680260181C7047C046002915D0F1
S113174002688A4203D113680360012015E0002A6D
S11317500ED013688B4205D1131C0BE01A688A4221
S113176008D0131C002BF9D1002006E0002004E06F
S1131770002002E00A681A600120704770B5041C5A
S11317800E1C151C002805D0002905D00120002AB4
S113179003D113E0002000E000200C4932220C4B5E
S11317A098476B1E1D4206D163600023A360E3606B
S11317B02660002009E00D20404206E00020034995
S11317C03222034B98476B1EEEE770BDD88A0000A7
S11317D0C916000038B5041C0D1C002803D0081CD1
S11317E0431E984100E000200A494A220A4B9847C8
S11317F0A368E2689A4209D0626813402268D35C05
S11318002B70A3680133A360002001E00A2040424A
S113181038BDC046D88A0000C916000038B5041C7B
S11318200D1C431E9841C0B20A495B220A4B9847DB
S1131830E368626813402268D554E3686168A2686B
S11318409A1A8A4201D9591AA1600133E36000202F
S113185038BDC046D88A0000C916000010B5041C63
S1131860431E9841C0B204497122044B9847E3686F
S1131870A068181A10BDC046D88A0000C916000016
S1131880031C064A1268002A02D10549034A116062
S1131890024A1068C31813607047C0460C01002048
S11318A028420020012040427047C04680239B010B
S11318B04B6000207047C0460120704700207047ED
S11318C01F2318401E3B8340181C8023014AD0501C
S11318D07047C04600E100E01F2318401E3B8340D0
S11318E0181C80235B00014AD050704700E100E0DF
S11318F01F2318401E3B8340181CC0235B00014A71
S1131900D050704700E100E01F2318401E3B834085
S1131910181C014B1860704700E100E038B5041C46
S11319200D1C00201C23A3424041C0B203498C2259
S1131930034B9847A400034BE55038BDFC8A0000D4
S1131940C9160000C40E0020FEE7C04608B5030116
S11319501B1A5B01181A02300321024B98476423B7
S1131960584308BD817200007047C0460139FDD854
S11319707047C04608B5094A516804230B435360B5
S11319800220074B9847074B9847074B9847074B4C
S11319909847074B9847074B984708BD00400041BC
S11319A0711C0000B91B0000D91B0000A51B00001E
S11319B08D1B0000F11B0000F0B557464E4645460E
S11319C0E0B482B0314B5A690192019A5A61304BAA
S11319D01868431E9841C0B22E49FF222E4B9847E7
S11319E0019B002B4CD001235B429A462B4B99461A
S11319F0274B98462A4D0198C847441EE4B263B267
S1131A0001332BD134E08B185B10DEB20340DB00D2
S1131A105B5DA3420CD09C4202DD721CD2B201E099
S1131A20711EC9B29142EED25346013309D004E08B
S1131A3002239A4601E002239A46504643461B6815
S1131A409847019B0122A240934301930198B84710
S1131A50441EE4B263B2013301D109E00F4F64B212
S1131A60022CE8D00223002601210022FF20D2E725
S1131A70064B5A690192019A5A61019B002BBAD113
S1131A8002B01CBC90469946A246F0BD002400401A
S1131A9010010020288B0000C9160000F973000013
S1131AA0208B000038B5284901224B681A42FCD12A
S1131AB0254903224B681A42FCD1234B1B789B0710
S1131AC03FD4214901224B681A42FCD11E4A1178A5
S1131AD001230B431370111C01224B681A42FCD1E1
S1131AE0194903224B681A42FCD1174B1A7810216A
S1131AF08A431A7000225A709A60A0210901D961A0
S1131B001A62191C03324B681A42FCD1051C0E4A96
S1131B10117802230B4313700C4C0D4B63600023AC
S1131B20A36003200B4B984703200B4B9847211DC0
S1131B3003200A4B98470320094B9847256000204F
S1131B4001E01120404238BD002400401001002073
S1131B50B9190000C1180000F11800001D19000097
S1131B600919000002280CD1002904D00422064BD4
S1131B701A61002007E0044B0422DA605A61002055
S1131B8001E001204042704700240040024B034A18
S1131B901A62034ADA627047001800400701010024
S1131BA005210100034B08229A71043A5A71033A41
S1131BB01A71704700040040054A064B5A61191C0B
S1131BC00122CB681A42FCD00022024B1A617047F2
S1131BD04E050000001000400E22044B1A75191C1B
S1131BE00232CB681A42FCD07047C046000C004059
S1131BF01A4B1B68980E43218023194AD1500222A4
S1131C00184B1A83191CFE32CB681342FCD0164AB7
S1131C10144B1A62191C80225200CB681342FCD068
S1131C2083028022920013430E4AD3610F4B138325
S1131C30138B5B0707D5111C90221201CB6813404C
S1131C409342FBD105E0074980225200CB6813423E
S1131C50FCD0034A5368002BFCD1704720608000FD
S1131C6000180040000C0040B80501044C0B0000B3
S1131C708023DB05FF229A719A7803218A43084066
S1131C80104398701A1C9379002BFCD07047C046FF
S1131C9008B5012A18D0002A02D0022A26D039E039
S1131CA0C001C023DB05C31859600B041B0C802240
S1131CB0D20513431A4A944660448362090CC02334
S1131CC01B06194381622AE0C001C023DB05C31847
S1131CD059600B041B0C134A1343114A9446604485
S1131CE08362090C104B1943816218E0C001C023C0
S1131CF0DB05C31899600B041B0C8022D205134327
S1131D00074A944660448362090CC0231B061943A6
S1131D10816204E0002005495322054B984708BD21
S1131D200028004000000240000002C0448B000074
S1131D30C9160000002A06D0C001C023DB059C465A
S1131D406044816104E0C001024B9C4660444160F0
S1131D507047C04610000060C001024B9C466044BE
S1131D60416070471800006010B5012A0ED0002AA7
S1131D7002D0022A1BD02BE0C0010818174B9C4646
S1131D806044037804229343037026E001238B40CC
S1131D90C001C022D2058418636008180F4A944613
S1131DA06044017804220A430270A36115E0012211
S1131DB08A40C001C023DB05C3185A6008180749CC
S1131DC08C46604404780421214301705A6104E084
S1131DD0002003499922034B984710BD4028004036
S1131DE0448B0000C916000070B54209C0B21F231D
S1131DF003401E1C4B1C0BD1FF231A40D201B31805
S1131E00184A944663441A7802318A431A7027E0C8
S1131E10FF231340DA01B218124CA446624414782A
S1131E200125AC432C431470C2070DD57208DB01A5
S1131E30D3180D4A9446634418780F2202400901CE
S1131E401143C9B219700BE07208DB01D318064ABA
S1131E50944663441A780F20824301401143197059
S1131E6070BDC046402800403028004010B5846949
S1131E70237EDB0707D5A37DDB0704D50123237568
S1131E800368984723E0237E9B0707D5A37D9B0720
S1131E9004D5022323758368984718E0237E5B07E3
S1131EA00BD5628B37231A4202D0083363830EE0CA
S1131EB0218DC9B24368984709E0237EDB0906D027
S1131EC080232376C3689847638B9BB2638310BDDA
S1131ED00523044A904201D08003030E0833D8B28C
S1131EE07047C0460004004310B5041E3C4B9C429E
S1131EF00CD083031B0E06D103E001210FE0022165
S1131F000DE000210BE0032B01D1F6E70523042BA0
S1131F10F5D000203349344A344B9847002101223C
S1131F20E3691A42FCD10322E3691A42FCD1236813
S1131F309B0751D40122E3691A42FCD12268012390
S1131F40134323600122E3691A42FCD10A1C8B006B
S1131F5059188900264B591888690321E3691942E5
S1131F60FCD1206093009B189B002149CB18DB69AE
S1131F706360C023DB01184216D093009B189B00BA
S1131F80CB18198C1C33C904C80CA189490B49030B
S1131F900143A1819B7907210B405903A389DB04E9
S1131FA0DB0C0B43A38106E093009B189B001049B4
S1131FB0CB181B8CA3810E49900083189B00CB186F
S1131FC01C33DB79A373821892008A1824321278A6
S1131FD03023E254002001E01120404210BDC046ED
S1131FE000040043C48B000092020000C9160000E4
S1131FF0608B000038B5051C0C1C431E9841C0B210
S11320000449C522044B98472C60201C034B984775
S113201038BDC046C48B0000C9160000E91E00008C
S113202070B5041C0D1C431E9841C0B20F49D42244
S11320300F4B9847281C0F4B9847061E14D1A561D7
S11320400D4B23616461281C0C4B9847051C0C4BF9
S11320509847281C0B4B9847211C1031281C0A4B0D
S11320609847281C094B9847301C70BDC48B00004E
S1132070C9160000E91E00006D1E0000D11E0000FC
S1132080C1180000F11800001D1900000919000012
S113209010B5041C80690B4B98470B4B9847A369F8
S11320A00321DA691142FCD11A6802218A431A60B9
S11320B00139DA691142FCD1196801220A431A6014
S11320C010BDC046D11E0000C118000002680321E3
S11320D0D3691942FCD1116802230B431360704782
S11320E082690321D3691942FCD1116802230B438D
S11320F01360704782690321D3691942FCD11368C4
S113210002218B4313607047036889B219857047B5
S1132110836989B2198570470368188DC0B2704706
S11321200368187E012318407047C0468369187EEF
S1132130012318407047C0460368187E4007C00F4B
S11321407047C0467047C046836901229A7570473C
S1132150836902229A75704770B5051C0E1C141C05
S1132160431E9841C0B21249124A134B98470223A6
S1132170321C9A430AD1AB6901221A759C75AB696A
S113218001321A756400E4B29C7510E0012E06D188
S1132190AB6904221A75A400E4B29C7507E0032E0F
S11321A005D1AB6980221A75E401E4B29C7570BD57
S11321B0C48B00004B020000C916000008B5C368B8
S11321C09A7AD20703D501229A720368984708BD08
S11321D070B5061C0C1E4F4B9C4200D190E04E4B38
S11321E0CB189B0ADBB2002B00D089E00025F460F9
S11321F001204A498A224A4B9847012223691A42FC
S1132200FCD1032223691A42FCD123689B0774D4AE
S1132210012223691A42FCD122680123134323605B
S1132220012223691A42FCD16DB2AB005B199B00F9
S11322303C4AD3185968032223691A42FCD121600D
S1132240AB005B199B00374AD3189A7AE2731B8957
S1132250E380012323730B330B40082B09D1AB001C
S11322605D19AD002F4B5B19DB68E361002323622A
S113227029E0002B09D1AB005D19AD00294B5B1996
S11322809B89A3830023E3831DE0042B1BD1AB00B4
S11322905B199B00234AD318197BFF2223691A4236
S11322A0FCD12177FF2223691A42FCD100236377F2
S11322B0AB005D19AD001B4B5B19D97A2022236951
S11322C01A42FCD1E17601236372174B7360B66046
S11322D0114B9C466444A40A1134E4B2201C134BF1
S11322E09847201C124B9847311D201C114B9847CE
S11322F0201C114B984700200AE01120404207E0BF
S1132300002006494822FF32054B9847FF256EE717
S113231070BDC0460008004300E0FFBDF88B00001C
S1132320C9160000E48B0000BD210000C1180000A4
S1132330F11800001D19000009190000C2680321EA
S113234013691942FCD1116802230B4313607047CF
S1132350C268032113691942FCD110688007C00FB9
S11323607047C0460020704708B5C068044B9C46BF
S11323706044800A1130C0B2024B984708BDC04681
S113238000E0FFBDD918000008B5002806D1081CDC
S1132390111C054B9847002803DB04E00120404250
S11323A001E00120404208BD0124000008B5431E9D
S11323B0022B06D8081C111C054B9847002803DB88
S11323C004E00120404201E00120404208BDC04633
S11323D02524000070B5061C064D2B689868002162
S11323E0054CA0472B6858680021A047034B1E608A
S11323F070BDC04694000020857600001C010020BA
S113240010B5041C054B1868002804D08AB2211C9E
S1132410034B984700E0002010BDC0461C0100207B
S1132420890E000010B5041C054B1868002804D060
S11324308AB2211C034B984700E0002010BDC0461F
S11324401C010020550E000008B5034B1B68002B2F
S113245000D0984708BDC0462001002008B5034BB2
S11324605B68002B00D0984708BDC04620010020BF
S113247008B5034B9B68002B00D0984708BDC046A5
S11324802001002008B5014B984708BD69030000EE
S113249010B5044C201C044B9847201C034B984750
S11324A010BDC046480E00209D160000D523000034
S11324B010B58024E4000120211C0222084B984717
S11324C001200A210022074B98472A200121494272
S11324D0054B98470120211C0122044B984710BD4D
S11324E0911C0000691D0000E91D0000351D00005D
S11324F008B501208021C900014B984708BDC0469A
S1132500591D000008B5011C0220014B984708BD65
S1132510D90D000010B503283ED8012816D0002894
S113252002D0022824D034E01C48007C002830D19A
S11325301A4C23601A4B99601A49D9601A741A48C4
S1132540191C1A4B98470123237422E01348407C3A
S113255000281ED1114C6360154B99601549D96050
S11325601A741148191C114B98470123637410E025
S11325700A48807C00280CD1084CA3600E4B99605B
S11325800E49D9601A740848191C084B984701234E
S1132590A37405480A4B984710BDC046200100208B
S11325A0400F002049240000A40E00203110000038
S11325B0301000205D2400001C1000207124000055
S11325C0F50F000008B5032829D8012810D00028E9
S11325D002D0022818D022E0114B1B7C002B1ED005
S11325E010481149114B984700220D4B1A7416E0FC
S11325F00B4B5B7C002B12D00A480D490B4B9847C0
S11326000022074B5A740AE0054B9B7C002B06D032
S113261004480849054B98470022014B9A7408BDA9
S113262020010020A40E0020400F0020D91000003B
S1132630301000201C100020014B18607047C04669
S1132640380F002010B5431C08D0410009180901B7
S1132650034B1B6800200122024CA04710BDC0465A
S1132660380F00201525000008B50020014B9847BD
S113267008BDC046C52500000020704700207047F3
S1132680C078002800D0E2207047C0460020704780
S113269008B50078002806D00348044B984704483E
S11326A0044B9847E22008BD08870000F975000034
S11326B0D08D0000D974000010B5031CC078002828
S11326C009D01C1C0448054B98472188A27804486B
S11326D0044B9847E22010BD08870000F9750000FC
S11326E0E48D0000D9740000F8B5041C194B9B223A
S11326F092009D1801270026181C1A1C563A1188AE
S11327002288914219D11A78052A01D0082A01D1C8
S1132710077012E0072A0FD892000F498A5897468B
S11327201E700E4A1278002A07D00C4A1278013A19
S1132730D2B20A490A7000E006707C33AB42DBD1A6
S11327400748084B9847E17822880748074B984781
S11327500020F8BDBE100020188C0000CC12002010
S113276008870000F97500001C8E0000D974000071
S113277070B5061C0188264B00241A898A4204D1AC
S11327801A1C5E321278062A2AD00134E4B27C3351
S1132790052CF2D135E01E4963011A1B92008A18F8
S11327A01576131C583307229A711A481A4B984706
S11327B01A481B4B9847E22527E01648164B9847C2
S11327C01848174B98477C235C43114B1B191A1C60
S11327D0583208219171F2781A75B2781A7614E099
S11327E0B578002DD7D1E8E70A4E301C0A4DA8472A
S11327F00C480B4CA047301CA8470B48A047E225C7
S113280003E0B578002DC6D1EEE7281C70BDC046A4
S11328106010002008870000F97500004C8E00004D
S1132820D9740000608E0000848E000010B5011C75
S1132830154B1B78DBB2132B12D8134C2378DBB265
S11328409800C018C000C3181048C0182922104BA3
S11328509847237823780133DBB22370002012E0F9
S11328600C480D4B98470D480D4B98470D4B984716
S1132870031CE220002B06D00648074B98470A4861
S1132880074B9847E22010BD340100205813002064
S1132890B774000008870000F9750000AC8E0000D2
S11328A0D97400008D460000E48E0000F8B54F4650
S11328B04646C0B4061C45883A4A0023DCB2191CBB
S11328C01089A84210D1101C5E30007803280BD167
S11328D05B015B1A9900334B5B18583305229A71DC
S11328E03579002D34D006E00134E4B201337C3272
S11328F0052BE3D128E063011C1BA400294B1C1900
S113290058340423A3712848284B98472848294B56
S1132910984770881321284B9847051E3DD02248BC
S1132920224B98472548234B9847E22535E01E4E15
S1132930301C1E4DA84722481E4CA047301CA847F7
S11329402048A047E22528E03379002BEFD0D2E7D6
S11329501548164B98471A48164B98473278114F2A
S11329607C235C433B1999461A7532791A7648469A
S11329703630311C22311022134B98469847484672
S11329804630311C32311722C04748461A30B11D37
S11329901C22C04705225E23FA54281C0CBC904616
S11329A09946F8BD6010002008870000F975000002
S11329B0FC8E0000D9740000AD4600001C8F00009E
S11329C0388F0000648F0000B774000010B50088D1
S11329D0012101227823024CA047002010BDC046EB
S11329E0CD460000F0B557464E464546E0B484B0A7
S11329F0041C06886C490A1C0023DDB21F1C1089C4
S1132A00B04214D1101C5E30007802280FD1664AFF
S1132A105B01DB1B9B00D3185833043098716B01A6
S1132A205B1B9B00D3181A7DD30705D41BE001332D
S1132A307C32052BE1D11EE0E378002B13D02088F3
S1132A406901491B8D00584949191A31574B984758
S1132A50002800D1A2E05648564B98475648574B99
S1132A609847E2209AE06B015D1BAD004E4B5D1967
S1132A7058350223AB7125880022D3B2161C08896D
S1132A80A8420DD1081C5E300078022808D15201FA
S1132A90921B9600444A921958320321917105E021
S1132AA00133DBB201327C31052AE6D101AA0221CD
S1132AB01172E1789170012151700331117000217C
S1132AC0D1701F1C5A01D21A92003749525C022A53
S1132AD004D101AA03219171D17144E001AA012119
S1132AE09171D1713FE0C847434618403070C847E0
S1132AF043461840B0740136AE42F4D153467033A5
S1132B00294A9E182E4B99460F239846C847434698
S1132B10184028700135B542F8D1294B98477B01FC
S1132B20DB1B9B00204AD3181A1C703210807833A8
S1132B3010229A7020887A01D71BBF0060371A4A86
S1132B40BA1801A900231F4CA047002826D001ABC6
S1132B5000229A705A701648164B98471A48174B19
S1132B609847E2201AE001AA1021517111717A01EB
S1132B70D21B92000C498A18127E402ADAD15A01DB
S1132B80D31A9B009A461E1C603676185546683543
S1132B906D180B4B99460F239846A4E704B01CBC50
S1132BA090469946A246F0BD6010002035550000BD
S1132BB008870000F9750000948F0000D9740000A4
S1132BC00D760000FD510000AC8F0000F0B55746B3
S1132BD04E464546E0B484B0804604884949002204
S1132BE0D3B2151C0889A0420DD1081C5E300078B0
S1132BF0022808D15201521B9500424A52195832F8
S1132C000321917105E00133DBB201327C31052AE5
S1132C10E6D101AA0221117201399170517000218B
S1132C201170D1701F1C5A01D21A92003549525C9E
S1132C30022A04D101AA03219171D17141E001AAB0
S1132C4001219171D1713CE0C84730402870C847D8
S1132C503040A8740135A542F6D153467033294A51
S1132C609D18294B99460F26C847304020700134DF
S1132C70AC42F9D1244B98477B01DB1B9B00214AD2
S1132C80D3181A1C70321080783310229A7043467D
S1132C9018887A01D71BBF0060371A4ABA1801A9ED
S1132CA000231A4CA047002825D001AB00229A70BB
S1132CB05A701748174B98471748184B9847E22003
S1132CC019E001AA1021517111717A01D21B9200ED
S1132CD00C498A18127E402AD9D15A01D31A9B0072
S1132CE09A461D1C60356D18544668346418064BAA
S1132CF099460F26A8E704B01CBC90469946A24604
S1132D00F0BDC046601000200D760000FD510000AB
S1132D1008870000F9750000D88F0000D9740000FE
S1132D20F0B585B0051C02A82E4906222E4EB047E8
S1132D3001AC201C291C0422B047E378002B1ED1CF
S1132D402A4F381C2A4EB0472A482B4CA047381C1F
S1132D50B0472A48A047381CB0472948A0472888CC
S1132D601321284B9847031CE220002B37D01F481F
S1132D701F4B98472448204B9847E2202FE001AB93
S1132D805A8880235B009A421DD11848184B9847F3
S1132D901E48194B984700241D4E02ABE05CB04717
S1132DA00134062CF9D1288801AB997802AA194B71
S1132DB09847002813D00D480D4B984716480E4BE2
S1132DC0984700200BE001AB9B780020012B06D133
S1132DD00648074B98471148074B9847002005B011
S1132DE0F0BDC046408D0000B774000008870000A5
S1132DF0F975000000900000D974000028900000CC
S1132E0034900000AD4600001C8F00004890000084
S1132E100D75000009540000809000009890000097
S1132E20F8B5061C0188304B0024E5B21A898A42A1
S1132E3016D11A1C5E321278012A11D92A4962016C
S1132E40121B92008A185832062393716B015B1B84
S1132E509B00CB1870331A8873889A4213D106E00A
S1132E600135EDB201347C33052CDED10BE0301D8D
S1132E706901491B89001C4B5918723108221B4BEC
S1132E809847002815D01A4F381C1A4EB0471A48D4
S1132E901A4CA047381CB0471948A0476B015D1B6A
S1132EA0AD00114B5D1928890521164B9847E22086
S1132EB018E0FF231C4030880B4B6201111B890072
S1132EC05918097D141BA4006034E31801220E4C28
S1132ED0A047002806D00648064B98470B48074BE6
S1132EE098470020F8BDC046601000209974000087
S1132EF008870000F9750000B4900000D974000040
S1132F00EC900000AD460000F9550000449100002B
S1132F1030B5002A47D0062947D88900284B5B588A
S1132F209F46284B05240AE0274B012407E0274B42
S1132F30052404E0264B012401E0264B0524002847
S1132F4016D1196800290BD106E01D1C0433181F83
S1132F500068002806D100E01D1C2A6001212CE035
S1132F60043300210131C9B2A142EED3002124E08F
S1132F700021012821D1196891420CD106E01D1CC1
S1132F800433181F0068904207D100E01D1C002381
S1132F902B60012111E0043300210131C9B2A142A7
S1132FA0EDD3002109E0002107E0002105E00A4BF0
S1132FB00524C4E7094B0124C1E7081C30BDC04601
S1132FC0388C00004C10002048100020D012002043
S1132FD098180020E4120020F81200205413002056
S1132FE0F0B5474680B490B0051C6C4A00231360CA
S1132FF053609360D3601361694A136053609360B4
S1133000D3601361674A136053609360D3601361A4
S1133010654A1360654A1360654A136053609360A0
S1133020D3601361634A1360634C9B239B009846EF
S1133030A044624F4026201C00217C22B847231C58
S11330405E3300221A7026767C344445F3D15C4BFF
S11330501A705C4C5C4B63605C4B0433236001234B
S11330602C32A3540132A354594BA360594BE3604F
S1133070594B2361594B6361594BA361594BE3612C
S1133080594B2362594B6362594BA36201200121BE
S1133090584B98475848594B98475948594B984763
S11330A0201C594B984700280BD0534E301C534DCD
S11330B0A8475648534CA047301CA8475448A0473B
S11330C0FEE7544C00200021221C534EB047221C22
S11330D04C3200200221B04750480721504B9847FA
S11330E0002805D04448454B98474E48454B9847DF
S11330F004A84D49083107224C4B9847002D0CD1A8
S113310004A84B4B984704AD002806D03A483B4BE3
S1133110984748483B4B984704AD3748374B984746
S1133120A9796A792B79E8780090A8780190687871
S11331300290287803904048324CA04706AC0A23FA
S113314023703E4B638007A8291C0722374B9847FE
S11331500023E37623776377A377E3772384638479
S113316080239B00A384201C354B9847002805D05E
S11331702148224B98473348224B9847281C324B0E
S11331809847002805D01C481C4B98472F481D4BD6
S1133190984710B004BC9046F0BDC046E41200202D
S11331A0F81200204C100020541300204810002076
S11331B0D01200209818002060100020C97400006C
S11331C0CC12002020130020E2040000340100206F
S11331D0893900009D390000A9390000C93900006F
S11331E0E5390000D9380000BD3800001539000069
S11331F07D3900009538000008870000F97500004B
S113320064910000D9740000114300007C91000017
S11332109C910000508D0000112F0000D8910000F7
S11332208D410000E0910000408D0000B774000063
S1133230E9410000F891000010920000983A000063
S11332400D42000048920000794400006C92000096
S113325008B501210122064B9847002806D00548ED
S1133260054B98470548064B9847E22008BDC046E1
S1133270B154000008870000F9750000A89200000E
S1133280D9740000F0B55F464E464546E0B49AB0A6
S1133290051C837A9946002B00D0D4E0754E301C6F
S11332A0754FB847A9796A792B79E8780090A8789E
S11332B00190687802907148714CA047301CB8475F
S11332C029897048A0477048291C12226F4B9847DF
S11332D004956F486430291C07226E4B98470028D8
S11332E002D02B78022B04D06B4E0024694B9B46F2
S11332F02AE006A800215022684B9847684F002313
S11333000BE0591C147806A8C45401328BB2B342A2
S1133310F7D17C37331E502B04D01E1C1036B6B2A6
S11333203A1CEEE70520291C06AA5E4B9847814605
S1133330002800D196E04F484F4B98475A48504BCD
S11333409847E22399468DE0E7B20594301C04992E
S11333500722D847002809D1059A53019B1A9A00DD
S11333604D4B9B18583302229A7141E001347C364C
S1133370052CE9D171E05E23474AD35C002B10D1C0
S113338017E03C483C4B9847484B1978C9B2484829
S11333903B4B984728891321464B9847E22399468B
S11333A060E0454A0123DFB21C1C1178002919D1C1
S11333B001E00024002763019846181B8000364E64
S11333C08019291C1222314B9847384A137801334B
S11333D0DBB2137043461B1B9B00F31858330222C5
S11333E09A7105E0791CCFB201337C32052BDAD116
S11333F027486430291C0722264B984700280ED101
S11334007B01DB1B9B00244AD31805229A742049B4
S11334100B1C643300224A669A809A7122E07B0175
S1133420DB1B9B001C4AD3180A229A741848031CFD
S1133430643300214166998099710A2A12D128893E
S11334401E4B98470EE00B480B4B9847A97A1C4833
S11334500B4B98470023994604E0144B1B78052B2B
S113346089D18EE748461AB01CBC90469946A346BB
S1133470F0BDC04608870000F9750000C89200003E
S1133480D97400000C9300000C130020B7740000E2
S1133490B40500209974000060100020C974000075
S11334A0A61000200D47000024930000CC12002039
S11334B048930000AD4600003A110020513200004C
S11334C084930000F0B5474680B40378002B66D19E
S11334D03B4D0024461C3B4F301C291C1022B8478E
S11334E000284BD00134E4B27C35052CF4D156E0ED
S11334F05E23354AD35C002B10D117E03348344B9C
S11335009847344B1978C9B23348344B9847344BF5
S113351018891321334B9847E2204EE0324A0123A5
S1133520DCB21D1C117800291CD101E00025002407
S1133530254B98466E01771BBF004744381C284929
S113354012222A4B9847234A13780133DBB21370B3
S113355058370223BB71751BAD002B1C43440A2250
S11335609A7421E001337C32052BD9D1002024E068
S11335701B4B18891E4B984700201EE0124963011B
S11335801A1B92008A18101C5830022585710A20D3
S11335909074101C12491222144B984704E00D4BEE
S11335A01B78052BA4D1A9E763011C1BA400064BBF
S11335B01C19A37C0A2BDBD0002004BC9046F0BD70
S11335C0A6100020997400006010002008870000F5
S11335D0F9750000CC12002048930000D974000053
S11335E00C130020AD4600003A110020B77400000F
S11335F051320000F8B50D1C3A286CD88300394AC2
S1133600D3589F4684000026374FBB59002B04D063
S11336101B59002B01D0281C98470436142EF4D1D2
S11336205FE01338C4B2A4000026304FBB59002B0E
S113363004D01B59002B01D0281C98470436142EA3
S1133640F4D14EE01D38C4B2A4000026284FBB5963
S1133650002B04D01B59002B01D0281C984704369A
S1133660142EF4D13DE02738C0B2224B1B68002B46
S113367037D08000C358002B33D0081C984730E063
S11336802D38C0B21C4B1B68002B2AD08000C358B5
S1133690002B26D0081C984723E03638C4B2A40077
S11336A00026164FBB59002B04D01B59002B01D008
S11336B0281C98470436142EF4D112E03838C0B2CE
S11336C00F4B1B68002B0CD08000C358002B08D074
S11336D0081C984705E00B4D281C0B4CA047281CE0
S11336E0A047F8BD548C0000E4120020F81200201A
S11336F04C1000205413002048100020D012002049
S11337009818002008870000F975000000B5C1B0C2
S11337104E23C25A002A08D0054B1868436801A9F1
S1133720984781B201A8034B984741B000BDC046F9
S1133730A01800202939000038B50B4C201C0021AA
S11337400A4A0B4DA847201C01210A4AA847201CFD
S113375009490A4B9847201C094B98470022094BFA
S11337601A70002038BDC046540E00200D370000EA
S1133770AD14000031380000A018002081140000AE
S1133780291400009C18002038B5104C201C104B44
S11337909847201C0F4B98470F4C201C03210F4BBC
S11337A09847201C00210E4A0E4DA847201C0121D9
S11337B00D4AA847201C0D490D4B9847201C0D4B62
S11337C098470D4B01221A7038BDC046540E002094
S11337D055140000F9130000F80D00202515000011
S11337E00D370000AD14000031380000A01800208F
S11337F081140000291400009C18002008B5084B0F
S11338001B78012B05D10748074B98474342584181
S113381004E00648044B98474342584108BDC0465B
S11338209C180020F80D002055150000540E0020AF
S113383010B5044CA0470028FCD10022024B1A709A
S113384010BDC046FD370000A418002070B5061C4A
S11338500D1C0C4CA0470028FCD1002D0CD00122DB
S1133860094B1A70094B1868311C2A1C084B9847DD
S1133870044CA0470028FCD1034A1378002BFCD148
S1133880002070BDFD370000A4180020A0180020FF
S1133890550E000008B5064B1870CF23012804D13B
S11338A0044B9847044B98470023181C08BDC04696
S11338B020060020A90400003937000008B5044B95
S11338C01B78012B02D189B2024B984708BDC04630
S11338D0200600204D38000008B5002807D1012932
S11338E002D1084B98470BE0074B984708E00128A2
S11338F006D1012902D1054B984701E0044B9847B2
S113390008BDC04695040000810400006D04000059
S113391059040000034B1B78012B01D1014B586063
S11339207047C0462006002070B5094B1B78012B58
S11339300DD100290BD0041C4D1EADB20135451923
S1133940034E2078736898470134AC42F9D170BDB6
S11339502006002072B6BFF35F8F0022014B1A705D
S11339607047C0461C0000200122034B1A70BFF3AD
S11339705F8F62B67047C0461C00002008B5014B3B
S1133980984708BD8937000008B5024B984702489C
S1133990043008BD392600001C00002008B5014B86
S11339A0984708BD6926000010B50C1C034B9847C6
S11339B0201C034B9847034B984710BD5539000012
S11339C0452600006939000008B5034B9847034BAE
S11339D09847034B984708BD5539000069260000F5
S11339E06939000008B580B2014B984708BDC0464C
S11339F0510D000070B50C4D2C68002C13D02668B6
S1133A00E2602E600025094A238113682560A080A6
S1133A10E180AB4201D1146005E01A68002A01D0AC
S1133A20131CFAE71C6070BDD0060020C8060020F5
S1133A300A4B0022191C10B51868094B9C18D05069
S1133A401032201CA02AF8D190330B60054BA13A08
S1133A505A801A8000229A60DA6010BDD0060020D5
S1133A6028060020A818002038B5204C051C081C86
S1133A702188231CA9420ED1A18881420BD10123A4
S1133A805B422380A2601A4B628801219A422BD1A7
S1133A90184B98471CE05988A9420CD19988814257
S1133AA009D10121494259809968002901D19A60BC
S1133AB0EEE7DA60ECE7104B9D420FD00F4B9D42CE
S1133AC008D00F4B00219D420ED1101C0D4B98477E
S1133AD0012109E0111C0C4B002202E0111C002200
S1133AE00A4B984741424141081C38BDA8180020A0
S1133AF0FFFF000061500000130E0000150E0000CF
S1133B00010E0000A55B0000755D00004D5E000025
S1133B100023F0B50D1C85B0029003920370B84BDE
S1133B200398984700230193B64C2368002B04D1D3
S1133B30B54B98470190D028F6D1B44B9847019BD8
S1133B40D02B00D18BE223681A68D9682260DA8806
S1133B500092AF4A9C88106813601860019B002B88
S1133B6000D07CE2AB4B9C4208D1009BA34200D026
S1133B7065E23823029A1370296070E2009BBB2B24
S1133B8025D1BB2C23D16B469B88AB808B784A789C
S1133B901B02CC78087913434A799F49AC702B8077
S1133BA08B4206D89D4A93420BD29D4A934208D039
S1133BB009E09C498B4206D113020343AB803723AF
S1133BC002E0362300E00023029A137047E2964B8A
S1133BD09C4200D1A2E100D983E0944B9C4200D1E5
S1133BE0FDE13CD8924B9C4200D1FCE116D8914BAC
S1133BF09C4200D1D5E104D83826B44200D12CE24D
S1133C001DE28D4B9C4200D1D1E1FE33FF339C4237
S1133C1000D014E200982A1C884B94E1884B9C4203
S1133C2000D1D0E10DD8874B9C4200D1C5E1864B31
S1133C309C4200D003E200982A1C844B9847142627
S1133C400BE2834B9C4200D1C3E1824B9C4200D0E7
S1133C50F5E100982A1C804B98471826FDE17F4B1C
S1133C609C4200D1CCE11ED87D4B9C4200D1CEE1D8
S1133C700DD87C4B9C4200D0E1E100982A1C7A4B81
S1133C809847A988061C794B28889847E5E1784B22
S1133C909C4200D1ADE1774B9C4200D0CFE100982B
S1133CA02A1C754B4FE1754B9C4200D12AE109D87F
S1133CB0083B9C4200D19EE0714B39269C4200D1C6
S1133CC0CBE1BCE1D1231B019C4200D120E16D4B2F
S1133CD09C4200D0B3E1081C6B4B291C98470F266B
S1133CE0BBE16A4B9C4200D135E13DD8684B9C4214
S1133CF000D152E119D8674B9C4200D11AE107D890
S1133D00033B9C4200D09AE100982A1C624B1AE1C2
S1133D10624B9C4200D107E1614B9C4200D08EE192
S1133D2000982A1C5F4B98476FE15F4B9C4200D17F
S1133D3006E10BD85D4B9C4200D12AE15C4B9C42CE
S1133D4000D07CE100982A1C5A4BFCE05A4B9C4260
S1133D5000D1FAE0594B9C4200D070E100982A1C33
S1133D60574B98470E2678E1564B9C4200D104E10C
S1133D7020D8554B9C4200D105E10DD8534B9C42B1
S1133D8000D1EEE0524B9C4200D058E100982A1C2E
S1133D90504B9847122660E14F4B9C4200D1E6E01D
S1133DA04E4B9C4200D04AE1081C4D4B291C9847BD
S1133DB02A2652E14B4B9C4200D134E10DD84A4BA8
S1133DC09C4200D129E1494B9C4200D037E1009844
S1133DD02A1C474B984730263FE1464B9C4200D172
S1133DE027E1454B9C4200D029E100982A1C434B13
S1133DF09847322631E1081C414B291C91E0C0460A
S1133E00F14F0000C80600206D500000155000005E
S1133E10D0060020FFFF00001E2000001D2000002F
S1133E20030C00001F2000001C0D00000C0C0000FF
S1133E30020C0000020A0000030A0000F56D0000F5
S1133E40060C0000040C0000050C0000E16C0000EE
S1133E50070C0000090C0000D56E0000170C0000D0
S1133E60120C00000D0C0000A16D00005D6C000040
S1133E70130C0000150C000061490000080D00003F
S1133E80010D0000150D0000C16A00001B0E0000AA
S1133E900F0E0000030E000079590000060E00000A
S1133EA00A0E000055620000150E0000110E0000FD
S1133EB0130E00004D5E0000170E0000190E0000E6
S1133EC099610000270E0000210E00001C0E000066
S1133ED01D0E000075630000220E0000250E000078
S1133EE0FB630000051B0000011B0000031B000016
S1133EF043700000061B0000081B00005B700000FC
S1133F0029670000081C5B4B291C98470426A4E081
S1133F10081C594B291C984701269EE0081C291CA3
S1133F20564B9847061C98E000982A1C544B984717
S1133F30112692E0081C534B291C984706268CE056
S1133F402A1C0098504B9847ECE700982A1C4F4BCA
S1133F5098470D2681E000982A1C4D4B98470B2664
S1133F607BE000982A1C4B4B9847102675E0081CF0
S1133F70494B291C984728266FE0081C474B291CED
S1133F809847292669E0081C454B291C9847272691
S1133F9063E000982A1C434BD5E700982A1C424B47
S1133FA0D1E7081C414B291C98472B2655E0081CD7
S1133FB03F4B291C98472C264FE000982A1C3D4B68
S1133FC09847132649E000982A1C3B4B984715262E
S1133FD043E000982A1C394B984716263DE0009888
S1133FE02A1C374BAFE700982A1C364B98472326E8
S1133FF033E0009B081C1F0A2F80291C324B90E7DA
S1134000081C009A291C314B98473A2625E0009851
S11340102A1C2F4B984720261FE000982A1C2D4B62
S11340209847332619E000982A1C2B4B98473426CE
S113403013E000982A1C294B984735260DE0C52229
S1134040274E28495200284B37682848B847336818
S113405027480099221C98470026029B1E70029B49
S11340601B783A2B03D1019B002B00D157E5019813
S113407005B0F0BD0D670000C9690000E56A0000E5
S1134080F9620000CD5C0000755D0000F560000081
S1134090AD620000C36200008D630000BB630000DA
S11340A0D1630000F961000023620000F9500000B0
S11340B025510000A56C0000296D00006D6D000005
S11340C0A16D0000C56E0000F54800002549000000
S11340D0156F000039700000497000004F70000037
S11340E030000020FE930000D0930000E193000014
S11340F025940000F7B50E4900240B680F1C1E1C04
S11341000C4A15680192002B0ED09A8819688242D5
S113411007D1002C01D0216000E00E1C1D601D1C85
S1134120231C1C1C0B1CEEE7019B3E601D60F7BDAD
S1134130C8060020D0060020F7B5124A0090136884
S113414011481F1C0021844604680192002B14D0DE
S1134150D888009A1D68060A96420BD1FD260640AF
S11341600C2E07D1002901D00D6000E02F1C1C602B
S11341701C1C0B1C191C2B1CE8E7019B1F606346CD
S11341801C60F7BDC8060020D006002038B5002802
S113419002D04B1E1F2B0BD90D4C0E49F7220E4B90
S11341A00E482568A84723680D489847CF200DE09E
S11341B00C4A131CAA33198000231C1CC55CAC34A4
S11341C001331555DCB28C42F7D3002038BDC0460C
S11341D03000002098940000E9960000E19300006C
S11341E0E79400004819002010B5041CCF20002CCF
S11341F006D0044BCE38211C9847034B1B792370FF
S113420010BDC046D165000048190020F0B50679FC
S113421089B0041C032E0CD9A722334D3349520014
S1134220334B2E683348B04721792B68324898477E
S113423020E003780F2B0DD954222B4D2B49FF324C
S11342402B4B2E682B48B0472B6821782B48984776
S1134250E02546E08023878C9B009F420CD95A229C
S1134260214C234B23482149FF322568A847236862
S113427023489847CF2534E0C57F837FAD015B0198
S11342801D43C37E1D43437F1B011D43037F9B00CE
S11342901D431C4BEDB21E710079032809D802F0AE
S11342A0E5FF02040606002302E0012300E00223E6
S11342B02371231C0B33618807932379207800939F
S11342C00195258C621D0295658C079B03950497C7
S11342D00D4DA8472671051C211C0A4826220B4BAC
S11342E09847281C09B0F0BD3000002098940000C5
S11342F05A940000E1930000FA940000189500001D
S11343003595000048190020AD640000B774000022
S11343107FB5041C46490B22464B01A89847201C34
S1134320454B9847051C041E09D0444C444B454852
S113433045492D222668B0472368444872E0444B1F
S11343409847231C051E09D03C4C3D4B3D483E4933
S113435033222668B04723683E4863E001213E4A81
S113436049429A1812335181902BF7D13B4C813B2F
S113437023703B4B3B4A6380002323710133581E57
S113438019010143023311700132212BF7D180222C
S11343909200A284221C002373321370221C7232F6
S11343A01370221C76321370221CCC321380211C11
S11343B0A022D03152000A80211CCE310A80221C56
S11343C0D2321380FA21221C4900D4321180221CDB
S11343D0D632E37623776377A377E3772384638402
S11343E01370201C204B9847051E09D0134C144B06
S11343F0144815495D222668B04723681B4811E01C
S113440007237434237001A80B21194B9847051E08
S11344100AD00A4C0A4B0B480B4966222668B0475F
S113442023681448291C9847281C04B070BDC04652
S11344304F940000B77400009D4E0000300000202F
S113444000970000E1930000989400005F9500003D
S11344501D6400007B950000B81800204819002056
S1134460983A0000531900200D4200009495000072
S11344708D410000B795000038B5451C031CCF20C2
S1134480002D18D01A78032A15D8012A02D15A7897
S1134490002A10D01C1C291C0622074B07489847E9
S11344A0237807480371074B98472378002B02D1E0
S11344B0281C054B984738BDB77400004D190020DF
S11344C0481900200D420000D1570000F8B5844679
S11344D00F1C161C1C1C002802D1E220002A2BD021
S11344E0CF201F2F28D81F2C26D86346002B0ED090
S11344F01248134D002F04D1391C1F22114B984729
S113450003E061463A1C104B984772352F70301EF9
S113451012D00B4D0D48002C07D1211C1F22094B32
S1134520733598472C70201C06E0311C221C064B66
S11345309847002073352C70F8BDC0467C190020C4
S113454048190020C9740000B77400009B190020AA
S1134550F0B591B01F1C16AB1D8817AB1B880D91CD
S11345600E9318AB1B78041C0F93424B161C733329
S11345701B78CF200C93012C03D10E9B002B76D1FA
S113458024E0042C73D88023DB019D426FD8002CD7
S113459002D11F2D6BD903E09F2D01D8012C66D1C8
S11345A0002F09D00D9BCF20013B012B5FD9012C9B
S11345B002D1002D00D120352F4B9847011C002E2D
S11345C043D03378601E002B09D13BE08023DB010C
S11345D09D424CD8002E4AD0002FE3D12BE001237A
S11345E003283AD90D20721C02E00E20321EFAD1A3
S11345F0204C743426780724002E00D0341C0092FA
S11346000D9A039404921B4A019502950597723200
S113461012780E9C0692194A07920C9A0892184A2C
S113462009926422624392B20A920F9A154C0B9239
S1134630154AA0471BE0002DBED10F4B98472025FB
S1134640011CBEE70328CDD806E0601E032803D969
S1134650331C0D20321CCBE7002302F0FDFDC606FF
S113466004020F20C2E700220C920C20BEE711B016
S1134670F0BDC04648190020B16900007C19002033
S11346809B1900209D680000983A000010B5054B66
S11346909847041E03D1D120034B00019847201CE6
S11346A010BDC046A9660000F540000038B5041CE2
S11346B0044B081C211C9847051C034B201C9847DD
S11346C0281C38BD855C00003941000070B5094CD8
S11346D0A047041E0BD0D022074D0849084B0948B7
S11346E092002E68B0472B680748211C9847201C6D
S11346F070BDC046A96100003000002098940000FD
S113470070940000E1930000D694000010B5CF230C
S113471000280AD0002908D0002A06D00C78022CE0
S113472003D1034B013198470023181C10BDC04628
S1134730516A0000831EDBB203200E2B01D8014A0C
S1134740D05C70478994000070B5051C00240C4BA4
S113475019680C4B1E688C4210DC0C206318DA0FAD
S1134760D318021C5B105A43B0180288AA4201D223
S1134770591EF0E7AA4202D95C1CECE7002070BD88
S1134780E4060020DC06002037B5094B051C081C94
S11347900C1C9847002809D08268002A06D0838818
S11347A0291C0092201C0022024CA0473EBDC0469A
S11347B049470000556B0000084B094A18604B0834
S11347C01360084AC3181360074A4118136003238F
S11347D003319943054B043919607047E8060020FA
S11347E0D4060020D8060020E0060020DC060020C5
S11347F070B50B4B061C0C1C151C9847002808D0E0
S11348008068002805D0211C2A1C064B98470020EC
S113481004E0301C291C221C034B984770BDC04681
S113482049470000B7740000256F000070B50C4BB9
S1134830061C0C1C151C984700280BD08368002B01
S113484008D083882B8082888168064B201C984777
S1134850002004E0301C291C221C034B984770BD27
S113486049470000B7740000AD6F0000F0B585B093
S1134870041C0191002929D14788184B381C261C97
S113488098470836002809D08068002806D0A388F5
S1134890E288C018311C124B984717E002AB9D1DEB
S11348A000232B800F4B2A1C1B68381C191C0093F7
S11348B00D4B9847009BA088E2881818311C084BC0
S11348C0984760882A880099084B9847608821880F
S11348D0019A074B9847002005B0F0BD49470000F6
S11348E0B7740000149700002D480000F147000041
S11348F0C96B000038B50C1C074B98476588074BFB
S1134900281C984783782620DB0704D42088291C98
S1134910034B98473A2038BD056B00004947000017
S11349208947000038B50D1C0A4B141C98472D8884
S1134930094B281C9847220A031C084C91B20028F2
S113494003D082880023281C01E0281C0122A047F0
S11349503A2038BD496B000049470000116C000043
S113496010B5141C074B9847074B608898470223DF
S113497081782220194003D1201C044B98471F2022
S113498010BDC046116B0000494700006D4800008F
S11349900122014B1A707047FA060020002210B55C
S11349A00C23534307495C58002C06D101225A506A
S11349B0CB1898605C60181C03E00132042AEFD124
S11349C0002010BDFC060020F7B5174F174E3B68BA
S11349D030689B68012198470023154D2B70154BB7
S11349E01C1D34330193231F1B68012B0FD1236833
S11349F0002B0CD0013B2360002B03D16368002BF8
S1134A0000D098472368002B01D001232B70019B11
S1134A100C349C42E7D12B78002B03D13B683068DF
S1134A20DB689847F7BDC046580700206809002096
S1134A305E090020FC06002008B5054B054A1B68EA
S1134A4010689B68012198470122034B1A7008BD26
S1134A5058070020680900205E09002008B50023DB
S1134A600C4A436013700C495858012805D1C918E1
S1134A704968002901D0107002E00C33302BF2D1C8
S1134A801378002B05D1054B054A1B681068DB68B9
S1134A90984708BD5E090020FC0600205807002046
S1134AA068090020F8B5114E071C3378104C002B10
S1134AB00ED101200F4D011C2B685B69984701231F
S1134AC033709F4207D12B6805201B69984702E089
S1134AD02068094B9847052223685A60074B1B78C6
S1134AE0002B01D1064B9847F8BDC046480700206B
S1134AF060090020580700205D4A00005E0900207C
S1134B00394A000038B5114B041C02209847104B59
S1134B101A78022A0DD10F4D0F4B281C211C9847DF
S1134B20281C0E4B9847002809D001220C4B1A7000
S1134B300AE0002A08D15A2C01D101321A70094B1B
S1134B4009481B68DB69984738BDC046A54A000080
S1134B50EC0D00203407002031720000FB710000CE
S1134B606C09002058070020054B000010B50E4BBF
S1134B701B78012B0DD10D4C0D4B20689847052255
S1134B8023685A600B4B1B78002B0BD10A4B9847B8
S1134B9008E00A4B01201B6800215B69984700224A
S1134BA0074B1A7010BDC046500700206009002052
S1134BB05D4A00005E090020394A000058070020C1
S1134BC0480700200023F0B587B000930193914C6F
S1134BD0914B201C9847071E00D018E18F4D2E687A
S1134BE0012E24D0002E03D0022E00D1AFE0EEE738
S1134BF004ABDF1D201C8A4B391C9847894B1A785B
S1134C00012A05D11E70884B88481B68DB699847C8
S1134C103B78052B01D1043B02E0042B01D1023B7C
S1134C202B600122824B1A600022824BBEE0804E30
S1134C303368012B02D0022B3AD0C8E704ABD91D4C
S1134C40201C774B9847774B1A78012A05D11F709F
S1134C50754B76481B68DB699847764B04A819881E
S1134C60C0794A1C92B21A80734B5854082AAED1A8
S1134C70DF79197858781A795C799B793F023B433C
S1134C80009313D1060224020E431443301C1A1C51
S1134C90211C6A4B9847002805D1009A211C301C1E
S1134CA0131C674CA04700232B60AEE0022370E086
S1134CB0614B201C1A785D78161C1A7902925A7975
S1134CC00392DA799B7912021343009304ABD91D42
S1134CD0534B9847534B1A78012A05D11F70524BF6
S1134CE052481B68DB699847564904AA07320B8867
S1134CF01278554F581CFA54544A009C128880B2BA
S1134D000880801AA04200D061E703982D020402B3
S1134D100298354304430020844666463F480433E2
S1134D200660032083430B80BA18444B281C211CC3
S1134D30984701230193B04200D048E7434B211C1C
S1134D401A88281CBA18009B3D4CA0473FE7384EF0
S1134D503368012B02D0022B2AD038E704ABDD1DC7
S1134D60201C2F4B291C98472E4B1A78012A05D159
S1134D701F702D4B2D481B68DB6998472D492878F7
S1134D800A88531C9BB20B802B498854022B00D0F9
S1134D901DE7802233602B4BD2001988521A0099E8
S1134DA08A4201D200221A801A88284B1A800EE700
S1134DB0214B201C5E7804ABD91D194B9847194B25
S1134DC01A78012A05D11F70174B18481B68DB6934
S1134DD098471C4904AA07320B8812781A485C1CAD
S1134DE0C2541A4AA4B212880C80A41AB44200D045
S1134DF0EDE600248218BB202C6004330334A34363
S1134E000B800F4CB3B2011CA0470123DEE60198CE
S1134E1007B0F0BD34070020ED710000300700201A
S1134E200D7200006C09002058070020054B00009B
S1134E30EC0600205C070020F2060020693A00001E
S1134E40F53900002C0700206D090020F006002031
S1134E50F8B50D4B071C01200E1C984701230B4C81
S1134E600B4D23700B4B1B78022B04D12B680A4883
S1134E709B69032198472B68381C311C9B69984710
S1134E8000202070F8BDC046A54A0000500700204D
S1134E905807002051070020109700007FB5031C1D
S1134EA02C331A783F4B041C1A7080223E483F4929
S1134EB092003F4B9847002801D140256FE03D4BBD
S1134EC0206861689847231C3B4D08332B60A36816
S1134ED0002BF2D02369002BEFD06369002BECD0B8
S1134EE0A369002BE9D0E369002BE6D0226A002AEB
S1134EF0E3D0626A002AE0D0A26A002A04D1022226
S1134F00A18DFF329142D8D00120011C9847002086
S1134F102B68011C5B6998472B6832201B699847F2
S1134F202B6801215B69002098472B6823481B6983
S1134F3098472B682248DB6998472B6821481B68EF
S1134F409847214B1860002801D1E22527E01F4E25
S1134F501F4D301CA8471F4B18600028F5D0301C8B
S1134F60A8471D4B18600028EFD01C48A8471C4BCD
S1134F7018600028E9D01B4B9847201C1A4B98470F
S1134F80051E0CD16B460122DC1D201C02A95242D5
S1134F90164B9847002802D12378392BF2D1281CCC
S1134FA004B070BD51070020340700205E070020C4
S1134FB0CD710000B947000058070020B80B00006D
S1134FC0054B0000C9490000680900209149000010
S1134FD09D4900004C070020540700206D4B000041
S1134FE060090020313A000099700000113B000074
S1134FF008B5054B1B685860044B1B78002B01D186
S1135000034B984708BDC0464C0700205E090020AA
S1135010394A000008B5024B1868024B984708BD8E
S11350204C0700205D4A000008B5054B1B6858601A
S1135030044B1B78002B01D1034B984708BDC04695
S1135040540700205E090020394A000008B5024BCD
S11350501868024B984708BD540700205D4A0000B9
S11350600122014B1A7070476409002008B50E4BE9
S113507098470E4B002807D10D4A1278012A05D013
S11350801A78012AF3D101E0012802D01A78012A02
S113509002D10020187005E0054B00201B78012B7D
S11350A000D1D03008BDC046C54B0000CC0600205E
S11350B0FA06002038B5FA2000240A4B00011C70BF
S11350C0094B9847094B1A781D1C012A04D0084B38
S11350D09847041ED02CF5D1064B98470023201C7A
S11350E02B7038BDFA060020295000006409002006
S11350F06D5000004D50000010B502780A7083789E
S113510044781B0223434B800379C0781B0203437A
S11351108B80002A03D1024A13780133137010BD27
S11351202C00002008B5031C4278007812020243C8
S11351300A80DA789878120202434A805A791879F8
S1135140120202438A80881D991D014B984708BDAD
S1135150B7740000F7B5071C0E1C151E0193052D2E
S11351602ED80124221C3323AA401A4228D00B78BB
S1135170073B092B0AD9194C19491A4B1A48F12231
S11351802568A84731782368184823E0019B002B41
S113519001D1002020E0164B381C00219847019BC8
S11351A018700728F5D90D4D0D49FA220D4B0E48FC
S11351B02E68B0472B680F48391C9847201C0BE019
S11351C0064C0749074B0848EC222668B047291CBF
S11351D0236809489847CF20FEBDC0463000002010
S11351E06C9700009E980000E193000096970000E1
S11351F015590000AC970000D2960000F0B50C1CC5
S11352001F218BB0079302ABC9180F230B706B4B94
S1135210051C161C9847071E072F0BD9684C6949B3
S11352201A22694B69482568A84723686848984743
S11352300120C0E0002C1BD112235F43654BFB5CB3
S1135240012B0BD104950094019402940394201C27
S1135250211C221C231C604DA8477BE0584C5A4B50
S11352605A48584929222568A84723685B48A0E082
S11352702279062A04D96379102B01D89A4209D9D4
S11352804F4C514B51484F4932222568A847236857
S113529053488EE0237A042B09D9494C4A4B4B4896
S11352A0484939222568A84723684E4881E0A379F4
S11352B0072B02D8E379072B09D9414C424B4348C9
S11352C0404941222568A8472368474871E0A378EC
S11352D0002B10D0002E09D1394C3B4B3B483949A7
S11352E049222568A8472368404862E04048311CA9
S11352F01C22404B9847079B002B05D03E48191CA5
S11353009A3010223B4B98476378A2789B00134352
S1135310122257432F4ADBB2BA5C002A1CD1A0796F
S1135320420702D5079A002A03D0C20706D5002EE9
S113533004D1234C2548234960221DE06679217855
S1135340E27800960190E0790290207A2B4C039049
S1135350281CA04700202EE0012A21D1E079420731
S113536002D5079A002A03D0C2070BD5002E09D113
S11353706E22134C15481349134B2568A84723681C
S11353801F4816E066792178E2780096A6790290A3
S11353900196207A049503900F4C0120A047D9E789
S11353A0074C094B0948074979222568A84723680F
S11353B014489847CF200BB0F0BDC04615590000E3
S11353C0300000206C970000C8980000E1930000B2
S11353D0BD970000B8180020355F0000D397000087
S11353E0E5970000F89700000F980000239800004C
S11353F0C6190020B774000048190020055D00009C
S1135400399800004D980000F0B585B0051C0C1CBF
S1135410161C0021684610221E4B98470121002EBD
S113542001D1311C6E46002C16D10127231C701D9E
S1135430013E02780138303A7A439B180A225743D6
S1135440B042F6D16A46684613701A0A42701A0CC2
S11354501B0E8270C37015E0012C07D1002368462F
S1135460F25CC2540133102BF9D10BE00A4C0B4906
S1135470AC220B4B0B482568A84723680A48984779
S1135480CF2005E004206A462B1C084CA0470020CE
S113549005B0F0BDC9740000300000206C97000016
S11354A038970000E193000060980000B95F0000A5
S11354B070B5174B0E1C0021051C141C98470728B7
S11354C00BD9144C1449C322144B15482568A8471A
S11354D0236814489847012018E012235843124BBC
S11354E0C35C012B0BD00B4C0B49C9220B4B0C4852
S11354F02568A84723680D489847E02006E0B100D6
S11355000C43281CE1B20A4B9847002070BDC046EA
S113551015590000300000206C9700004E970000E1
S1135520E19300006F980000B81800207F980000F5
S113553011600000F0B50F2687B002ABF6180823FF
S1135540071C0C1E039233702FD0204D1A31331CCC
S1135550A847051E2AD11222337853431C4A9B5C68
S1135560002B11D016221B4C1B49FF321B4B256804
S11355701B48A847122233781A485343144AE0259B
S1135580995C2368984711E0211C1C22164B17488C
S11355909847231CA17E228A00910399123301911A
S11355A0381C211C124CA0470CE0CF258F22094C3B
S11355B009490A4B0A4852002668B04723680D4837
S11355C0291C9847281C07B0F0BDC046555100005F
S11355D0B8180020300000206C970000B09800003C
S11355E0E19300008E980000B7740000C6190020F3
S11355F059600000D6940000F0B585B0061C0391F4
S1135600171C1D1E14D0002A09D1AB7E104C009328
S1135610301C03993A1C2B1CA047002415E0191CCC
S11356200C4C1A31039A0023A047041EEDD000E06D
S1135630CF243822084D0949094B0A48FF322E6805
S1135640B0472B680848211C9847201C05B0F0BDC2
S11356501561000055510000300000206C970000D7
S113566018970000E1930000D694000038B5051C9B
S1135670274C28482849A04728482949A0472948B1
S11356802949A04729482A49A0472A482A49A04726
S11356902A482B49A0472B482B49A0472B482C4983
S11356A0A0472C482C49A0472C482D49A0472D48F9
S11356B02D49A0472D482E49A0472E482E49A047E2
S11356C02E482F49A0472F482F49A0472F4830493B
S11356D0A04730483049A04730483149A0473148B5
S11356E03149A04731493248A0476978012901D19D
S11356F03048A04730480121A04730480121A04745
S11357002F480421A04702212E48FF31A04738BD6D
S113571065700000C0010410E36A00100C0004105E
S1135720A5530010100004109D5400104C000410E8
S1135730155500103400041047560010680004107A
S113574055590010880004105D5A0010BC00041064
S11357507D5B0010DC0004109D5C0010E40004106C
S11357606D5E0010E8000410DF600010EC0004100F
S1135770996100100C0104104D63001054010410D1
S11357804565001060010410F565001074010410F3
S11357908D67001010020410717500103800041099
S11357A0FF5700100400001081580010DB57001050
S11357B03C000010A07C001068010410D07B001095
S11357C0D47B0010000004100FB4002004B0704714
S11357D0144AF8B5146800230522011C03260F2778
S11357E0201C114D0930AB60EB6022700B32237129
S11357F06271A371E37123720A3A0C4B6770A6704D
S1135800E67098470A4B201C2B800623391CE37151
S1135810084BAE809847084B9847D02801D0AB6816
S11358201878F8BD0C970000A8180020B774000081
S113583029030000514E0000B5500000002238B585
S11358402E4B0E259A60DA602D4B1C6805232171BE
S113585010212370A570063329356370E5706171DA
S1135860A271E27122726072A272012832D0904257
S11358701FD0022837D1234B1A1CCE321188E17273
S11358801288120A22731A1CD0321188617312888A
S1135890120AA2731A1CD2321188D433E17312880B
S11358A01321120A22741A8862741B881B0AA374B7
S11358B01AE0201C134D1449AA352B880D30E372CD
S11358C02B881B0A23732A88104B984729880D318B
S11358D089B209E00B4B0D21CC331A88E2721B8884
S11358E01B0A237300E0191C0B1C093BE3711B12F8
S11358F02372201C064B984738BDC046A8180020C8
S11359000C97000048190020F4190020B774000017
S1135910514E00000C4B70B5041C08209C4211D061
S1135920002312225A43094DD8B256197689A64249
S113593004D1002906D0535D0B7003E00133082B1A
S1135940EFD1181C70BDC046FFFF0000B81800203E
S1135950002312225A430649D8B252185189054AE3
S1135960914203D00133082BF3D1181C7047C04671
S1135970B8180020FFFF0000F0B5141C0A7885B0A9
S1135980031C501E01924D780F2800D985E001F0C8
S11359906DFC085884845858846C2E132691848492
S11359A03A483A20002D00D185E01B0A23800023C9
S11359B0A570E37034387EE002AAD61D01221F0AC6
S11359C0381C311C3D4B32709847072803D8337874
S11359D03A20002B6FD06780257109206BE03A20B4
S11359E0002D68D01B0A2380A5702C3863E03A2070
S11359F0002D60D01B0A23800023A570A380E380C0
S1135A002381333857E03A20002D54D025722C4C92
S1135A102C4B2D482D498F222568A84723682C48F4
S1135A200CE03A20002D46D02571254C254B264804
S1135A3026499F222568A847236826489847292095
S1135A4039E03A20002D36D01D4F2049B5221D4B98
S1135A501D483E68B0473B681F48291C98476B4661
S1135A601B79E570A370112025E03A20002D22D087
S1135A701B0A63802570201D00210522174B9847BF
S1135A800F4C1249C7220F4B0F482668B0472368B2
S1135A901348291C984712200DE0094C0B49D122C8
S1135AA0084B09482568A84723680E480199984778
S1135AB0002000E03A2005B0F0BDC04615590000B2
S1135AC030000020DC980000E193000007990000FA
S1135AD0429900006499000086990000C97400008E
S1135AE0AD990000D6990000F0B5002585B01E1CC4
S1135AF00AAB1B78019202930BAB1B78071C039330
S1135B000CAB1A88234B00919D60DD60224B391C3D
S1135B101C680523201C2370033B63700C33A370A3
S1135B20E3700233227163711C4FA571E571257214
S1135B3010220930B8476B46201C1B780199637604
S1135B40009B10221B0AA376009B1D301B0CE376DE
S1135B50009B1B0E2377B847231C320A2D335A703F
S1135B60320C9A70221C1E703032330E13706A4647
S1135B70231C127A31331A706A46127B5D709A7054
S1135B80DD702C23201CE3713521054B9847281C1C
S1135B9005B0F0BDA81800200C970000B7740000F1
S1135BA0514E0000F0B545780378304C2D021D436A
S1135BB0A585C37882788BB01B021A436B46059285
S1135BC09B8A2021E385437902791B021A436B46A1
S1135BD006921B8B061C2386C37982791B021A4307
S1135BE06B4607926A469B8B52186386437A011C64
S1135BF00893231C1278773378341A700A310622FA
S1135C001B4B201C9847337C09931A4B98471A4E18
S1135C10071E072F1BD812234343F01845816946FA
S1135C202425491909780622F15420216B465B1872
S1135C301B78211C43706B469B8A023043816B4660
S1135C401B8B83816B469B8BC381094B9847122125
S1135C5000234F4300930193F6197189074A029177
S1135C60101C191C064CA0470BB0F0BD48190020AD
S1135C70B774000051590000B8180020C40D00206A
S1135C80E95A000010B5002405220D4B9C60DC602D
S1135C900C4B1B681A70013A5A700A329A70DA7007
S1135CA002325A710F3A5A72013219719C711C7284
S1135CB09872DA71181C0B21034B9847201C10BDF5
S1135CC0A81800200C970000514E000010B5041CC9
S1135CD0437800781B0218430880A3780A1CCB7011
S1135CE00021064B91709847072806D81223584381
